{
  "_format": "hh-sol-artifact-1",
  "contractName": "Erc20TokenFactory",
  "sourceName": "contracts/Erc20TokenFactory.sol",
  "abi": [
    {
      "anonymous": false,
      "inputs": [
        {
          "indexed": true,
          "internalType": "address",
          "name": "tokenAddress",
          "type": "address"
        },
        {
          "indexed": true,
          "internalType": "address",
          "name": "owner",
          "type": "address"
        },
        {
          "indexed": false,
          "internalType": "string",
          "name": "name",
          "type": "string"
        },
        {
          "indexed": false,
          "internalType": "string",
          "name": "symbol",
          "type": "string"
        },
        {
          "indexed": false,
          "internalType": "uint8",
          "name": "decimals",
          "type": "uint8"
        },
        {
          "indexed": false,
          "internalType": "uint256",
          "name": "initialSupply",
          "type": "uint256"
        }
      ],
      "name": "TokenCreated",
      "type": "event"
    },
    {
      "inputs": [
        {
          "internalType": "uint256",
          "name": "",
          "type": "uint256"
        }
      ],
      "name": "allTokens",
      "outputs": [
        {
          "internalType": "address",
          "name": "",
          "type": "address"
        }
      ],
      "stateMutability": "view",
      "type": "function"
    },
    {
      "inputs": [
        {
          "internalType": "address",
          "name": "owner",
          "type": "address"
        },
        {
          "internalType": "string",
          "name": "name",
          "type": "string"
        },
        {
          "internalType": "string",
          "name": "symbol",
          "type": "string"
        },
        {
          "internalType": "uint8",
          "name": "decimals",
          "type": "uint8"
        },
        {
          "internalType": "uint256",
          "name": "initialSupply",
          "type": "uint256"
        },
        {
          "internalType": "bool",
          "name": "isMintable",
          "type": "bool"
        },
        {
          "internalType": "bool",
          "name": "isBurnable",
          "type": "bool"
        }
      ],
      "name": "createToken",
      "outputs": [
        {
          "internalType": "address",
          "name": "",
          "type": "address"
        }
      ],
      "stateMutability": "nonpayable",
      "type": "function"
    }
  ],
  "bytecode": "0x6080604052348015600f57600080fd5b50612ae98061001f6000396000f3fe608060405234801561001057600080fd5b50600436106100365760003560e01c8063634282af1461003b5780637e66808d1461006b575b600080fd5b61005560048036038101906100509190610253565b61009b565b60405161006291906102c1565b60405180910390f35b610085600480360381019061008091906104bf565b6100da565b60405161009291906102c1565b60405180910390f35b600081815481106100ab57600080fd5b906000526020600020016000915054906101000a900473ffffffffffffffffffffffffffffffffffffffff1681565b600080878787878c88886040516100f0906101fc565b6101009796959493929190610645565b604051809103906000f08015801561011c573d6000803e3d6000fd5b5090506000819080600181540180825580915050600190039060005260206000200160009091909190916101000a81548173ffffffffffffffffffffffffffffffffffffffff021916908373ffffffffffffffffffffffffffffffffffffffff1602179055503373ffffffffffffffffffffffffffffffffffffffff168173ffffffffffffffffffffffffffffffffffffffff167f6aba688e0d9fb13e49808a9f69e09384142cd46853e4ecfcf79aa7e4d63c18328a8a8a8a6040516101e594939291906106c2565b60405180910390a380915050979650505050505050565b61239e8061071683390190565b6000604051905090565b600080fd5b600080fd5b6000819050919050565b6102308161021d565b811461023b57600080fd5b50565b60008135905061024d81610227565b92915050565b60006020828403121561026957610268610213565b5b60006102778482850161023e565b91505092915050565b600073ffffffffffffffffffffffffffffffffffffffff82169050919050565b60006102ab82610280565b9050919050565b6102bb816102a0565b82525050565b60006020820190506102d660008301846102b2565b92915050565b6102e5816102a0565b81146102f057600080fd5b50565b600081359050610302816102dc565b92915050565b600080fd5b600080fd5b6000601f19601f8301169050919050565b7f4e487b7100000000000000000000000000000000000000000000000000000000600052604160045260246000fd5b61035b82610312565b810181811067ffffffffffffffff8211171561037a57610379610323565b5b80604052505050565b600061038d610209565b90506103998282610352565b919050565b600067ffffffffffffffff8211156103b9576103b8610323565b5b6103c282610312565b9050602081019050919050565b82818337600083830152505050565b60006103f16103ec8461039e565b610383565b90508281526020810184848401111561040d5761040c61030d565b5b6104188482856103cf565b509392505050565b600082601f83011261043557610434610308565b5b81356104458482602086016103de565b91505092915050565b600060ff82169050919050565b6104648161044e565b811461046f57600080fd5b50565b6000813590506104818161045b565b92915050565b60008115159050919050565b61049c81610487565b81146104a757600080fd5b50565b6000813590506104b981610493565b92915050565b600080600080600080600060e0888a0312156104de576104dd610213565b5b60006104ec8a828b016102f3565b975050602088013567ffffffffffffffff81111561050d5761050c610218565b5b6105198a828b01610420565b965050604088013567ffffffffffffffff81111561053a57610539610218565b5b6105468a828b01610420565b95505060606105578a828b01610472565b94505060806105688a828b0161023e565b93505060a06105798a828b016104aa565b92505060c061058a8a828b016104aa565b91505092959891949750929550565b600081519050919050565b600082825260208201905092915050565b60005b838110156105d35780820151818401526020810190506105b8565b60008484015250505050565b60006105ea82610599565b6105f481856105a4565b93506106048185602086016105b5565b61060d81610312565b840191505092915050565b6106218161044e565b82525050565b6106308161021d565b82525050565b61063f81610487565b82525050565b600060e082019050818103600083015261065f818a6105df565b9050818103602083015261067381896105df565b90506106826040830188610618565b61068f6060830187610627565b61069c60808301866102b2565b6106a960a0830185610636565b6106b660c0830184610636565b98975050505050505050565b600060808201905081810360008301526106dc81876105df565b905081810360208301526106f081866105df565b90506106ff6040830185610618565b61070c6060830184610627565b9594505050505056fe608060405234801561001057600080fd5b5060405161239e38038061239e833981810160405281019061003291906104c0565b866000908161004191906107b1565b50856001908161005191906107b1565b5084600260006101000a81548160ff021916908360ff16021790555082600460006101000a81548173ffffffffffffffffffffffffffffffffffffffff021916908373ffffffffffffffffffffffffffffffffffffffff16021790555081600460146101000a81548160ff02191690831515021790555080600460156101000a81548160ff0219169083151502179055506100f283856100fe60201b60201c565b5050505050505061098d565b600073ffffffffffffffffffffffffffffffffffffffff168273ffffffffffffffffffffffffffffffffffffffff160361016d576040517f08c379a0000000000000000000000000000000000000000000000000000000008152600401610164906108e0565b60405180910390fd5b806003600082825461017f919061092f565b9250508190555080600560008473ffffffffffffffffffffffffffffffffffffffff1673ffffffffffffffffffffffffffffffffffffffff16815260200190815260200160002060008282546101d5919061092f565b925050819055508173ffffffffffffffffffffffffffffffffffffffff16600073ffffffffffffffffffffffffffffffffffffffff167fddf252ad1be2c89b69c2b068fc378daa952ba7f163c4a11628f55a4df523b3ef8360405161023a9190610972565b60405180910390a35050565b6000604051905090565b600080fd5b600080fd5b600080fd5b600080fd5b6000601f19601f8301169050919050565b7f4e487b7100000000000000000000000000000000000000000000000000000000600052604160045260246000fd5b6102ad82610264565b810181811067ffffffffffffffff821117156102cc576102cb610275565b5b80604052505050565b60006102df610246565b90506102eb82826102a4565b919050565b600067ffffffffffffffff82111561030b5761030a610275565b5b61031482610264565b9050602081019050919050565b60005b8381101561033f578082015181840152602081019050610324565b60008484015250505050565b600061035e610359846102f0565b6102d5565b90508281526020810184848401111561037a5761037961025f565b5b610385848285610321565b509392505050565b600082601f8301126103a2576103a161025a565b5b81516103b284826020860161034b565b91505092915050565b600060ff82169050919050565b6103d1816103bb565b81146103dc57600080fd5b50565b6000815190506103ee816103c8565b92915050565b6000819050919050565b610407816103f4565b811461041257600080fd5b50565b600081519050610424816103fe565b92915050565b600073ffffffffffffffffffffffffffffffffffffffff82169050919050565b60006104558261042a565b9050919050565b6104658161044a565b811461047057600080fd5b50565b6000815190506104828161045c565b92915050565b60008115159050919050565b61049d81610488565b81146104a857600080fd5b50565b6000815190506104ba81610494565b92915050565b600080600080600080600060e0888a0312156104df576104de610250565b5b600088015167ffffffffffffffff8111156104fd576104fc610255565b5b6105098a828b0161038d565b975050602088015167ffffffffffffffff81111561052a57610529610255565b5b6105368a828b0161038d565b96505060406105478a828b016103df565b95505060606105588a828b01610415565b94505060806105698a828b01610473565b93505060a061057a8a828b016104ab565b92505060c061058b8a828b016104ab565b91505092959891949750929550565b600081519050919050565b7f4e487b7100000000000000000000000000000000000000000000000000000000600052602260045260246000fd5b600060028204905060018216806105ec57607f821691505b6020821081036105ff576105fe6105a5565b5b50919050565b60008190508160005260206000209050919050565b60006020601f8301049050919050565b600082821b905092915050565b6000600883026106677fffffffffffffffffffffffffffffffffffffffffffffffffffffffffffffffff8261062a565b610671868361062a565b95508019841693508086168417925050509392505050565b6000819050919050565b60006106ae6106a96106a4846103f4565b610689565b6103f4565b9050919050565b6000819050919050565b6106c883610693565b6106dc6106d4826106b5565b848454610637565b825550505050565b600090565b6106f16106e4565b6106fc8184846106bf565b505050565b5b81811015610720576107156000826106e9565b600181019050610702565b5050565b601f8211156107655761073681610605565b61073f8461061a565b8101602085101561074e578190505b61076261075a8561061a565b830182610701565b50505b505050565b600082821c905092915050565b60006107886000198460080261076a565b1980831691505092915050565b60006107a18383610777565b9150826002028217905092915050565b6107ba8261059a565b67ffffffffffffffff8111156107d3576107d2610275565b5b6107dd82546105d4565b6107e8828285610724565b600060209050601f83116001811461081b5760008415610809578287015190505b6108138582610795565b86555061087b565b601f19841661082986610605565b60005b828110156108515784890151825560018201915060208501945060208101905061082c565b8683101561086e578489015161086a601f891682610777565b8355505b6001600288020188555050505b505050505050565b600082825260208201905092915050565b7f45524332303a206d696e7420746f20746865207a65726f206164647265737300600082015250565b60006108ca601f83610883565b91506108d582610894565b602082019050919050565b600060208201905081810360008301526108f9816108bd565b9050919050565b7f4e487b7100000000000000000000000000000000000000000000000000000000600052601160045260246000fd5b600061093a826103f4565b9150610945836103f4565b925082820190508082111561095d5761095c610900565b5b92915050565b61096c816103f4565b82525050565b60006020820190506109876000830184610963565b92915050565b611a028061099c6000396000f3fe608060405234801561001057600080fd5b50600436106100ea5760003560e01c806370a082311161008c57806395d89b411161006657806395d89b411461024f5780639dc29fac1461026d578063a9059cbb14610289578063dd62ed3e146102b9576100ea565b806370a08231146101e3578063883356d9146102135780638da5cb5b14610231576100ea565b806323b872dd116100c857806323b872dd1461015b578063313ce5671461018b57806340c10f19146101a957806346b45af7146101c5576100ea565b806306fdde03146100ef578063095ea7b31461010d57806318160ddd1461013d575b600080fd5b6100f76102e9565b6040516101049190611019565b60405180910390f35b610127600480360381019061012291906110d4565b610377565b604051610134919061112f565b60405180910390f35b61014561038e565b6040516101529190611159565b60405180910390f35b61017560048036038101906101709190611174565b610398565b604051610182919061112f565b60405180910390f35b61019361048a565b6040516101a091906111e3565b60405180910390f35b6101c360048036038101906101be91906110d4565b61049d565b005b6101cd61058a565b6040516101da919061112f565b60405180910390f35b6101fd60048036038101906101f891906111fe565b61059d565b60405161020a9190611159565b60405180910390f35b61021b6105e6565b604051610228919061112f565b60405180910390f35b6102396105f9565b604051610246919061123a565b60405180910390f35b61025761061f565b6040516102649190611019565b60405180910390f35b610287600480360381019061028291906110d4565b6106ad565b005b6102a3600480360381019061029e91906110d4565b61079a565b6040516102b0919061112f565b60405180910390f35b6102d360048036038101906102ce9190611255565b6107b1565b6040516102e09190611159565b60405180910390f35b600080546102f6906112c4565b80601f0160208091040260200160405190810160405280929190818152602001828054610322906112c4565b801561036f5780601f106103445761010080835404028352916020019161036f565b820191906000526020600020905b81548152906001019060200180831161035257829003601f168201915b505050505081565b6000610384338484610838565b6001905092915050565b6000600354905090565b600080600660008673ffffffffffffffffffffffffffffffffffffffff1673ffffffffffffffffffffffffffffffffffffffff16815260200190815260200160002060003373ffffffffffffffffffffffffffffffffffffffff1673ffffffffffffffffffffffffffffffffffffffff1681526020019081526020016000205490508281101561045d576040517f08c379a000000000000000000000000000000000000000000000000000000000815260040161045490611367565b60405180910390fd5b6104738533858461046e91906113b6565b610838565b61047e858585610a01565b60019150509392505050565b600260009054906101000a900460ff1681565b600460009054906101000a900473ffffffffffffffffffffffffffffffffffffffff1673ffffffffffffffffffffffffffffffffffffffff163373ffffffffffffffffffffffffffffffffffffffff161461052d576040517f08c379a000000000000000000000000000000000000000000000000000000000815260040161052490611436565b60405180910390fd5b600460149054906101000a900460ff1661057c576040517f08c379a0000000000000000000000000000000000000000000000000000000008152600401610573906114a2565b60405180910390fd5b6105868282610c77565b5050565b600460149054906101000a900460ff1681565b6000600560008373ffffffffffffffffffffffffffffffffffffffff1673ffffffffffffffffffffffffffffffffffffffff168152602001908152602001600020549050919050565b600460159054906101000a900460ff1681565b600460009054906101000a900473ffffffffffffffffffffffffffffffffffffffff1681565b6001805461062c906112c4565b80601f0160208091040260200160405190810160405280929190818152602001828054610658906112c4565b80156106a55780601f1061067a576101008083540402835291602001916106a5565b820191906000526020600020905b81548152906001019060200180831161068857829003601f168201915b505050505081565b600460009054906101000a900473ffffffffffffffffffffffffffffffffffffffff1673ffffffffffffffffffffffffffffffffffffffff163373ffffffffffffffffffffffffffffffffffffffff161461073d576040517f08c379a000000000000000000000000000000000000000000000000000000000815260040161073490611436565b60405180910390fd5b600460159054906101000a900460ff1661078c576040517f08c379a00000000000000000000000000000000000000000000000000000000081526004016107839061150e565b60405180910390fd5b6107968282610dbf565b5050565b60006107a7338484610a01565b6001905092915050565b6000600660008473ffffffffffffffffffffffffffffffffffffffff1673ffffffffffffffffffffffffffffffffffffffff16815260200190815260200160002060008373ffffffffffffffffffffffffffffffffffffffff1673ffffffffffffffffffffffffffffffffffffffff16815260200190815260200160002054905092915050565b600073ffffffffffffffffffffffffffffffffffffffff168373ffffffffffffffffffffffffffffffffffffffff16036108a7576040517f08c379a000000000000000000000000000000000000000000000000000000000815260040161089e906115a0565b60405180910390fd5b600073ffffffffffffffffffffffffffffffffffffffff168273ffffffffffffffffffffffffffffffffffffffff1603610916576040517f08c379a000000000000000000000000000000000000000000000000000000000815260040161090d90611632565b60405180910390fd5b80600660008573ffffffffffffffffffffffffffffffffffffffff1673ffffffffffffffffffffffffffffffffffffffff16815260200190815260200160002060008473ffffffffffffffffffffffffffffffffffffffff1673ffffffffffffffffffffffffffffffffffffffff168152602001908152602001600020819055508173ffffffffffffffffffffffffffffffffffffffff168373ffffffffffffffffffffffffffffffffffffffff167f8c5be1e5ebec7d5bd14f71427d1e84f3dd0314c0f7b2291e5b200ac8c7c3b925836040516109f49190611159565b60405180910390a3505050565b600073ffffffffffffffffffffffffffffffffffffffff168373ffffffffffffffffffffffffffffffffffffffff1603610a70576040517f08c379a0000000000000000000000000000000000000000000000000000000008152600401610a67906116c4565b60405180910390fd5b600073ffffffffffffffffffffffffffffffffffffffff168273ffffffffffffffffffffffffffffffffffffffff1603610adf576040517f08c379a0000000000000000000000000000000000000000000000000000000008152600401610ad690611756565b60405180910390fd5b80600560008573ffffffffffffffffffffffffffffffffffffffff1673ffffffffffffffffffffffffffffffffffffffff168152602001908152602001600020541015610b61576040517f08c379a0000000000000000000000000000000000000000000000000000000008152600401610b58906117e8565b60405180910390fd5b80600560008573ffffffffffffffffffffffffffffffffffffffff1673ffffffffffffffffffffffffffffffffffffffff1681526020019081526020016000206000828254610bb091906113b6565b9250508190555080600560008473ffffffffffffffffffffffffffffffffffffffff1673ffffffffffffffffffffffffffffffffffffffff1681526020019081526020016000206000828254610c069190611808565b925050819055508173ffffffffffffffffffffffffffffffffffffffff168373ffffffffffffffffffffffffffffffffffffffff167fddf252ad1be2c89b69c2b068fc378daa952ba7f163c4a11628f55a4df523b3ef83604051610c6a9190611159565b60405180910390a3505050565b600073ffffffffffffffffffffffffffffffffffffffff168273ffffffffffffffffffffffffffffffffffffffff1603610ce6576040517f08c379a0000000000000000000000000000000000000000000000000000000008152600401610cdd90611888565b60405180910390fd5b8060036000828254610cf89190611808565b9250508190555080600560008473ffffffffffffffffffffffffffffffffffffffff1673ffffffffffffffffffffffffffffffffffffffff1681526020019081526020016000206000828254610d4e9190611808565b925050819055508173ffffffffffffffffffffffffffffffffffffffff16600073ffffffffffffffffffffffffffffffffffffffff167fddf252ad1be2c89b69c2b068fc378daa952ba7f163c4a11628f55a4df523b3ef83604051610db39190611159565b60405180910390a35050565b600073ffffffffffffffffffffffffffffffffffffffff168273ffffffffffffffffffffffffffffffffffffffff1603610e2e576040517f08c379a0000000000000000000000000000000000000000000000000000000008152600401610e259061191a565b60405180910390fd5b80600560008473ffffffffffffffffffffffffffffffffffffffff1673ffffffffffffffffffffffffffffffffffffffff168152602001908152602001600020541015610eb0576040517f08c379a0000000000000000000000000000000000000000000000000000000008152600401610ea7906119ac565b60405180910390fd5b80600560008473ffffffffffffffffffffffffffffffffffffffff1673ffffffffffffffffffffffffffffffffffffffff1681526020019081526020016000206000828254610eff91906113b6565b925050819055508060036000828254610f1891906113b6565b92505081905550600073ffffffffffffffffffffffffffffffffffffffff168273ffffffffffffffffffffffffffffffffffffffff167fddf252ad1be2c89b69c2b068fc378daa952ba7f163c4a11628f55a4df523b3ef83604051610f7d9190611159565b60405180910390a35050565b600081519050919050565b600082825260208201905092915050565b60005b83811015610fc3578082015181840152602081019050610fa8565b60008484015250505050565b6000601f19601f8301169050919050565b6000610feb82610f89565b610ff58185610f94565b9350611005818560208601610fa5565b61100e81610fcf565b840191505092915050565b600060208201905081810360008301526110338184610fe0565b905092915050565b600080fd5b600073ffffffffffffffffffffffffffffffffffffffff82169050919050565b600061106b82611040565b9050919050565b61107b81611060565b811461108657600080fd5b50565b60008135905061109881611072565b92915050565b6000819050919050565b6110b18161109e565b81146110bc57600080fd5b50565b6000813590506110ce816110a8565b92915050565b600080604083850312156110eb576110ea61103b565b5b60006110f985828601611089565b925050602061110a858286016110bf565b9150509250929050565b60008115159050919050565b61112981611114565b82525050565b60006020820190506111446000830184611120565b92915050565b6111538161109e565b82525050565b600060208201905061116e600083018461114a565b92915050565b60008060006060848603121561118d5761118c61103b565b5b600061119b86828701611089565b93505060206111ac86828701611089565b92505060406111bd868287016110bf565b9150509250925092565b600060ff82169050919050565b6111dd816111c7565b82525050565b60006020820190506111f860008301846111d4565b92915050565b6000602082840312156112145761121361103b565b5b600061122284828501611089565b91505092915050565b61123481611060565b82525050565b600060208201905061124f600083018461122b565b92915050565b6000806040838503121561126c5761126b61103b565b5b600061127a85828601611089565b925050602061128b85828601611089565b9150509250929050565b7f4e487b7100000000000000000000000000000000000000000000000000000000600052602260045260246000fd5b600060028204905060018216806112dc57607f821691505b6020821081036112ef576112ee611295565b5b50919050565b7f45524332303a207472616e7366657220616d6f756e742065786365656473206160008201527f6c6c6f77616e6365000000000000000000000000000000000000000000000000602082015250565b6000611351602883610f94565b915061135c826112f5565b604082019050919050565b6000602082019050818103600083015261138081611344565b9050919050565b7f4e487b7100000000000000000000000000000000000000000000000000000000600052601160045260246000fd5b60006113c18261109e565b91506113cc8361109e565b92508282039050818111156113e4576113e3611387565b5b92915050565b7f4e6f74206f776e65720000000000000000000000000000000000000000000000600082015250565b6000611420600983610f94565b915061142b826113ea565b602082019050919050565b6000602082019050818103600083015261144f81611413565b9050919050565b7f4d696e74696e672069732064697361626c656400000000000000000000000000600082015250565b600061148c601383610f94565b915061149782611456565b602082019050919050565b600060208201905081810360008301526114bb8161147f565b9050919050565b7f4275726e696e672069732064697361626c656400000000000000000000000000600082015250565b60006114f8601383610f94565b9150611503826114c2565b602082019050919050565b60006020820190508181036000830152611527816114eb565b9050919050565b7f45524332303a20617070726f76652066726f6d20746865207a65726f2061646460008201527f7265737300000000000000000000000000000000000000000000000000000000602082015250565b600061158a602483610f94565b91506115958261152e565b604082019050919050565b600060208201905081810360008301526115b98161157d565b9050919050565b7f45524332303a20617070726f766520746f20746865207a65726f20616464726560008201527f7373000000000000000000000000000000000000000000000000000000000000602082015250565b600061161c602283610f94565b9150611627826115c0565b604082019050919050565b6000602082019050818103600083015261164b8161160f565b9050919050565b7f45524332303a207472616e736665722066726f6d20746865207a65726f20616460008201527f6472657373000000000000000000000000000000000000000000000000000000602082015250565b60006116ae602583610f94565b91506116b982611652565b604082019050919050565b600060208201905081810360008301526116dd816116a1565b9050919050565b7f45524332303a207472616e7366657220746f20746865207a65726f206164647260008201527f6573730000000000000000000000000000000000000000000000000000000000602082015250565b6000611740602383610f94565b915061174b826116e4565b604082019050919050565b6000602082019050818103600083015261176f81611733565b9050919050565b7f45524332303a207472616e7366657220616d6f756e742065786365656473206260008201527f616c616e63650000000000000000000000000000000000000000000000000000602082015250565b60006117d2602683610f94565b91506117dd82611776565b604082019050919050565b60006020820190508181036000830152611801816117c5565b9050919050565b60006118138261109e565b915061181e8361109e565b925082820190508082111561183657611835611387565b5b92915050565b7f45524332303a206d696e7420746f20746865207a65726f206164647265737300600082015250565b6000611872601f83610f94565b915061187d8261183c565b602082019050919050565b600060208201905081810360008301526118a181611865565b9050919050565b7f45524332303a206275726e2066726f6d20746865207a65726f2061646472657360008201527f7300000000000000000000000000000000000000000000000000000000000000602082015250565b6000611904602183610f94565b915061190f826118a8565b604082019050919050565b60006020820190508181036000830152611933816118f7565b9050919050565b7f45524332303a206275726e20616d6f756e7420657863656564732062616c616e60008201527f6365000000000000000000000000000000000000000000000000000000000000602082015250565b6000611996602283610f94565b91506119a18261193a565b604082019050919050565b600060208201905081810360008301526119c581611989565b905091905056fea2646970667358221220e395a007770395c27b4c21e8bbfc885044315bc9048527a07d4606f40510fb3f64736f6c634300081c0033a2646970667358221220e8944143c258a1a73d74a6c5c51d69c089eececcad5ead2b620ccd1640c6252664736f6c634300081c0033",
  "linkReferences": {},
  "deployedLinkReferences": {}
}